{
  "transactions": [
    {
      "hash": "0x279846c8db6400e65f541150db171c2a1b2bf0570dcd955db8a19d4390758f21",
      "transactionType": "CALL",
      "contractName": null,
      "contractAddress": "0x06d641CC46fc3C1091feD4f14Bbaf6ee39E55595",
      "function": "requestWeather(string)",
      "arguments": [
        "new-york"
      ],
      "transaction": {
        "from": "0x7E8d7BFd6cc6B05d056f2E46860D95038f2E3234",
        "to": "0x06d641CC46fc3C1091feD4f14Bbaf6ee39E55595",
        "gas": "0x623cd",
        "value": "0x0",
        "input": "0x1829ca52000000000000000000000000000000000000000000000000000000000000002000000000000000000000000000000000000000000000000000000000000000086e65772d796f726b000000000000000000000000000000000000000000000000",
        "nonce": "0x279",
        "chainId": "0xa869"
      },
      "additionalContracts": [],
      "isFixedGasLimit": false
    }
  ],
  "receipts": [
    {
      "status": "0x1",
      "cumulativeGasUsed": "0x471f5",
      "logs": [
        {
          "address": "0x84c14D17E9D77140Efd998bE44a4CebF10729856",
          "topics": [
            "0xbf50768ccf13bd0110ca6d53a9c4f1f3271abdd4c24a56878863ed25b20598ff",
            "0x93c70542a27d370c084c9f6800b3e458be3ef6dea0b8f459d6c76fda84b2f96e",
            "0x00000000000000000000000006d641cc46fc3c1091fed4f14bbaf6ee39e55595"
          ],
          "data": "0x0000000000000000000000007e8d7bfd6cc6b05d056f2e46860d95038f2e3234000000000000000000000000000000000000000000000000000000000000352e0000000000000000000000007e8d7bfd6cc6b05d056f2e46860d95038f2e32340000000000000000000000000000000000000000000000000000000000000240000000000000000000000000000000000000000000000000000000000000000100000000000000000000000000000000000000000000000000000000000000000000000000000000000000000000000000000000000000000000000000030d4093c70542a27d370c084c9f6800b3e458be3ef6dea0b8f459d6c76fda84b2f96e00000000000000000000000084c14d17e9d77140efd998be44a4cebf107298560000000000000000000000000000000000000000000000000751a6e324c7aa2600000000000000000000000006d641cc46fc3c1091fed4f14bbaf6ee39e55595000000000000000000000000000000000000000000000000000000000000352e0000000000000000000000000000000000000000000000000000000000030d4000000000000000000000000000000000000000000000000003f931c67a26552e00000000000000000000000000000000000000000000000000000000000000000000000000000000000000000000000000000000000000000000000000020788000000000000000000000000000000000000000000000000000000000000dea8000000000000000000000000000000000000000000000000000000006710b52200000000000000000000000000000000000000000000000000000000000001c06c636f64654c6f636174696f6ec258200000000000000000000000000000000000000000000000000000000000000000686c616e6775616765c25820000000000000000000000000000000000000000000000000000000000000000066736f7572636579014a636f6e73742063697479203d20617267735b305d3b636f6e737420617069526573706f6e7365203d2061776169742046756e6374696f6e732e6d616b654874747052657175657374287b75726c3a205c6068747470733a2f2f777474722e696e2f5c247b636974797d3f666f726d61743d335c602c726573706f6e7365547970653a202774657874277d293b69662028617069526573706f6e73652e6572726f7229207b7468726f77204572726f72282752657175657374206661696c656427293b7d636f6e7374207b2064617461207d203d20617069526573706f6e73653b636f6e73742074656d70203d20737472203d3e207374722e6d61746368282f5b2d2b5d3f5c642b432f295b305d3b636f6e736f6c652e6c6f672874656d70286461746129293b72657475726e2046756e6374696f6e732e656e636f6465537472696e672864617461293b64617267739f686e65772d796f726bff",
          "blockHash": "0x17bda84a7a3b97efee22ebea213bdc82262a7ccf5dda8bba9c00c0f44699ac25",
          "blockNumber": "0x22a1d09",
          "transactionHash": "0x279846c8db6400e65f541150db171c2a1b2bf0570dcd955db8a19d4390758f21",
          "transactionIndex": "0x0",
          "logIndex": "0x0",
          "removed": false
        },
        {
          "address": "0xA9d587a00A31A52Ed70D6026794a8FC5E2F5dCb0",
          "topics": [
            "0xf67aec45c9a7ede407974a3e0c3a743dffeab99ee3f2d4c9a8144c2ebf2c7ec9",
            "0x93c70542a27d370c084c9f6800b3e458be3ef6dea0b8f459d6c76fda84b2f96e",
            "0x66756e2d6176616c616e6368652d66756a692d31000000000000000000000000",
            "0x000000000000000000000000000000000000000000000000000000000000352e"
          ],
          "data": "0x0000000000000000000000007e8d7bfd6cc6b05d056f2e46860d95038f2e323400000000000000000000000006d641cc46fc3c1091fed4f14bbaf6ee39e555950000000000000000000000007e8d7bfd6cc6b05d056f2e46860d95038f2e323400000000000000000000000000000000000000000000000000000000000000e000000000000000000000000000000000000000000000000000000000000000010000000000000000000000000000000000000000000000000000000000030d400000000000000000000000000000000000000000000000000751a6e324c7aa2600000000000000000000000000000000000000000000000000000000000001c06c636f64654c6f636174696f6ec258200000000000000000000000000000000000000000000000000000000000000000686c616e6775616765c25820000000000000000000000000000000000000000000000000000000000000000066736f7572636579014a636f6e73742063697479203d20617267735b305d3b636f6e737420617069526573706f6e7365203d2061776169742046756e6374696f6e732e6d616b654874747052657175657374287b75726c3a205c6068747470733a2f2f777474722e696e2f5c247b636974797d3f666f726d61743d335c602c726573706f6e7365547970653a202774657874277d293b69662028617069526573706f6e73652e6572726f7229207b7468726f77204572726f72282752657175657374206661696c656427293b7d636f6e7374207b2064617461207d203d20617069526573706f6e73653b636f6e73742074656d70203d20737472203d3e207374722e6d61746368282f5b2d2b5d3f5c642b432f295b305d3b636f6e736f6c652e6c6f672874656d70286461746129293b72657475726e2046756e6374696f6e732e656e636f6465537472696e672864617461293b64617267739f686e65772d796f726bff",
          "blockHash": "0x17bda84a7a3b97efee22ebea213bdc82262a7ccf5dda8bba9c00c0f44699ac25",
          "blockNumber": "0x22a1d09",
          "transactionHash": "0x279846c8db6400e65f541150db171c2a1b2bf0570dcd955db8a19d4390758f21",
          "transactionIndex": "0x0",
          "logIndex": "0x1",
          "removed": false
        },
        {
          "address": "0x06d641CC46fc3C1091feD4f14Bbaf6ee39E55595",
          "topics": [
            "0x1131472297a800fee664d1d89cfa8f7676ff07189ecc53f80bbb5f4969099db8",
            "0x93c70542a27d370c084c9f6800b3e458be3ef6dea0b8f459d6c76fda84b2f96e"
          ],
          "data": "0x",
          "blockHash": "0x17bda84a7a3b97efee22ebea213bdc82262a7ccf5dda8bba9c00c0f44699ac25",
          "blockNumber": "0x22a1d09",
          "transactionHash": "0x279846c8db6400e65f541150db171c2a1b2bf0570dcd955db8a19d4390758f21",
          "transactionIndex": "0x0",
          "logIndex": "0x2",
          "removed": false
        }
      ],
      "logsBloom": "0x00000000000100100000000100800000000000000004000000000000000000000000000000000000000000000000000000800000000000000000000000000010000000000000080000000000000000000800000000000000000000000000000000000000000000000000400000000000000000008000000000000000000000000000000000000800000000000001000000000200000000010000001000000000000000000001000000000000000000000010004000000000000000000000000040000000000000000080000c00000000000000000000020010001000000000000000000000000000200000000000000000000000840000000000000000200000",
      "type": "0x2",
      "transactionHash": "0x279846c8db6400e65f541150db171c2a1b2bf0570dcd955db8a19d4390758f21",
      "transactionIndex": "0x0",
      "blockHash": "0x17bda84a7a3b97efee22ebea213bdc82262a7ccf5dda8bba9c00c0f44699ac25",
      "blockNumber": "0x22a1d09",
      "gasUsed": "0x471f5",
      "effectiveGasPrice": "0x5d21dba01",
      "from": "0x7E8d7BFd6cc6B05d056f2E46860D95038f2E3234",
      "to": "0x06d641CC46fc3C1091feD4f14Bbaf6ee39E55595",
      "contractAddress": null
    }
  ],
  "libraries": [],
  "pending": [],
  "returns": {},
  "timestamp": 1729147900,
  "chain": 43113,
  "commit": "791858f"
}