{
  "transactions": [
    {
      "hash": "0xdeae330a63f231d4efb55953818a30c7a500da8dd8a952c21caa1586eee9398e",
      "transactionType": "CALL",
      "contractName": null,
      "contractAddress": "0xbcCED4E74f3f14a7Be7DB10Bb399d75E538964D1",
      "function": "requestWeather(string)",
      "arguments": [
        "new-york"
      ],
      "transaction": {
        "from": "0x7E8d7BFd6cc6B05d056f2E46860D95038f2E3234",
        "to": "0xbcCED4E74f3f14a7Be7DB10Bb399d75E538964D1",
        "gas": "0x66934",
        "value": "0x0",
        "input": "0x1829ca52000000000000000000000000000000000000000000000000000000000000002000000000000000000000000000000000000000000000000000000000000000086e65772d796f726b000000000000000000000000000000000000000000000000",
        "nonce": "0x289",
        "chainId": "0xa869"
      },
      "additionalContracts": [],
      "isFixedGasLimit": false
    }
  ],
  "receipts": [
    {
      "status": "0x1",
      "cumulativeGasUsed": "0x46231",
      "logs": [
        {
          "address": "0x84c14D17E9D77140Efd998bE44a4CebF10729856",
          "topics": [
            "0xbf50768ccf13bd0110ca6d53a9c4f1f3271abdd4c24a56878863ed25b20598ff",
            "0xab54d79ea419b6da39aff7899b30788453099d11c6dab1ff7afe0fe8f0f59da5",
            "0x000000000000000000000000bcced4e74f3f14a7be7db10bb399d75e538964d1"
          ],
          "data": "0x0000000000000000000000007e8d7bfd6cc6b05d056f2e46860d95038f2e3234000000000000000000000000000000000000000000000000000000000000352e0000000000000000000000007e8d7bfd6cc6b05d056f2e46860d95038f2e32340000000000000000000000000000000000000000000000000000000000000240000000000000000000000000000000000000000000000000000000000000000100000000000000000000000000000000000000000000000000000000000000000000000000000000000000000000000000000000000000000000000000030d40ab54d79ea419b6da39aff7899b30788453099d11c6dab1ff7afe0fe8f0f59da500000000000000000000000084c14d17e9d77140efd998be44a4cebf10729856000000000000000000000000000000000000000000000000078fced058a757d7000000000000000000000000bcced4e74f3f14a7be7db10bb399d75e538964d1000000000000000000000000000000000000000000000000000000000000352e0000000000000000000000000000000000000000000000000000000000030d4000000000000000000000000000000000000000000000000004040a47414bb44e00000000000000000000000000000000000000000000000000000000000000000000000000000000000000000000000000000000000000000000000000020788000000000000000000000000000000000000000000000000000000000000dea800000000000000000000000000000000000000000000000000000000671195a200000000000000000000000000000000000000000000000000000000000001776c636f64654c6f636174696f6ec258200000000000000000000000000000000000000000000000000000000000000000686c616e6775616765c25820000000000000000000000000000000000000000000000000000000000000000066736f75726365790101636f6e73742063697479203d20617267735b305d3b636f6e737420617069526573706f6e7365203d2061776169742046756e6374696f6e732e6d616b654874747052657175657374287b75726c3a206068747470733a2f2f777474722e696e2f247b636974797d3f666f726d61743d33602c726573706f6e7365547970653a202774657874277d293b69662028617069526573706f6e73652e6572726f7229207b7468726f77204572726f72282752657175657374206661696c656427293b7d636f6e7374207b2064617461207d203d20617069526573706f6e73653b72657475726e2046756e6374696f6e732e656e636f6465537472696e672864617461293b64617267739f686e65772d796f726bff000000000000000000",
          "blockHash": "0xf2fb68f126d9596af771418f69a8b359c01bac4a4ed50aac7b9f08a9a7a10939",
          "blockNumber": "0x22a3ac5",
          "transactionHash": "0xdeae330a63f231d4efb55953818a30c7a500da8dd8a952c21caa1586eee9398e",
          "transactionIndex": "0x0",
          "logIndex": "0x0",
          "removed": false
        },
        {
          "address": "0xA9d587a00A31A52Ed70D6026794a8FC5E2F5dCb0",
          "topics": [
            "0xf67aec45c9a7ede407974a3e0c3a743dffeab99ee3f2d4c9a8144c2ebf2c7ec9",
            "0xab54d79ea419b6da39aff7899b30788453099d11c6dab1ff7afe0fe8f0f59da5",
            "0x66756e2d6176616c616e6368652d66756a692d31000000000000000000000000",
            "0x000000000000000000000000000000000000000000000000000000000000352e"
          ],
          "data": "0x0000000000000000000000007e8d7bfd6cc6b05d056f2e46860d95038f2e3234000000000000000000000000bcced4e74f3f14a7be7db10bb399d75e538964d10000000000000000000000007e8d7bfd6cc6b05d056f2e46860d95038f2e323400000000000000000000000000000000000000000000000000000000000000e000000000000000000000000000000000000000000000000000000000000000010000000000000000000000000000000000000000000000000000000000030d40000000000000000000000000000000000000000000000000078fced058a757d700000000000000000000000000000000000000000000000000000000000001776c636f64654c6f636174696f6ec258200000000000000000000000000000000000000000000000000000000000000000686c616e6775616765c25820000000000000000000000000000000000000000000000000000000000000000066736f75726365790101636f6e73742063697479203d20617267735b305d3b636f6e737420617069526573706f6e7365203d2061776169742046756e6374696f6e732e6d616b654874747052657175657374287b75726c3a206068747470733a2f2f777474722e696e2f247b636974797d3f666f726d61743d33602c726573706f6e7365547970653a202774657874277d293b69662028617069526573706f6e73652e6572726f7229207b7468726f77204572726f72282752657175657374206661696c656427293b7d636f6e7374207b2064617461207d203d20617069526573706f6e73653b72657475726e2046756e6374696f6e732e656e636f6465537472696e672864617461293b64617267739f686e65772d796f726bff000000000000000000",
          "blockHash": "0xf2fb68f126d9596af771418f69a8b359c01bac4a4ed50aac7b9f08a9a7a10939",
          "blockNumber": "0x22a3ac5",
          "transactionHash": "0xdeae330a63f231d4efb55953818a30c7a500da8dd8a952c21caa1586eee9398e",
          "transactionIndex": "0x0",
          "logIndex": "0x1",
          "removed": false
        },
        {
          "address": "0xbcCED4E74f3f14a7Be7DB10Bb399d75E538964D1",
          "topics": [
            "0x1131472297a800fee664d1d89cfa8f7676ff07189ecc53f80bbb5f4969099db8",
            "0xab54d79ea419b6da39aff7899b30788453099d11c6dab1ff7afe0fe8f0f59da5"
          ],
          "data": "0x",
          "blockHash": "0xf2fb68f126d9596af771418f69a8b359c01bac4a4ed50aac7b9f08a9a7a10939",
          "blockNumber": "0x22a3ac5",
          "transactionHash": "0xdeae330a63f231d4efb55953818a30c7a500da8dd8a952c21caa1586eee9398e",
          "transactionIndex": "0x0",
          "logIndex": "0x2",
          "removed": false
        }
      ],
      "logsBloom": "0x00000000000100110000000100200000000000000004000100000000000000000000000000000000000000000000000000000000000000000000000000000010000000000000080000000000000000000800000000000000000000000000000400000003000000000000400000000000000000008000000000000000000000000000000000000800000010000000000000000200000000010000001000000000000800000001000000000000000000000000000000000000000000000000000040000000000000000080008800000000000000000000020000001000000000000000000000000000000000000000000000000000040000000000000000200000",
      "type": "0x2",
      "transactionHash": "0xdeae330a63f231d4efb55953818a30c7a500da8dd8a952c21caa1586eee9398e",
      "transactionIndex": "0x0",
      "blockHash": "0xf2fb68f126d9596af771418f69a8b359c01bac4a4ed50aac7b9f08a9a7a10939",
      "blockNumber": "0x22a3ac5",
      "gasUsed": "0x46231",
      "effectiveGasPrice": "0x62b85e900",
      "from": "0x7E8d7BFd6cc6B05d056f2E46860D95038f2E3234",
      "to": "0xbcCED4E74f3f14a7Be7DB10Bb399d75E538964D1",
      "contractAddress": null
    }
  ],
  "libraries": [],
  "pending": [],
  "returns": {},
  "timestamp": 1729205374,
  "chain": 43113,
  "commit": "791858f"
}