{
  "transactions": [
    {
      "hash": "0xd236a1432c8717e1f67eb3f0742b734fafe8b8a047380e69f7be5cdb356ea6b5",
      "transactionType": "CALL",
      "contractName": null,
      "contractAddress": "0xa44890719734c4BD9C5620455641D8Ba6e56A25E",
      "function": "setForwarder(address)",
      "arguments": [
        "0xC2a1171419bac1eA3e2a18f7479f50B86013a812"
      ],
      "transaction": {
        "from": "0x7E8d7BFd6cc6B05d056f2E46860D95038f2E3234",
        "to": "0xa44890719734c4BD9C5620455641D8Ba6e56A25E",
        "gas": "0x9569",
        "value": "0x0",
        "input": "0xb9998a24000000000000000000000000c2a1171419bac1ea3e2a18f7479f50b86013a812",
        "nonce": "0x2a8",
        "chainId": "0xa869"
      },
      "additionalContracts": [],
      "isFixedGasLimit": false
    }
  ],
  "receipts": [
    {
      "status": "0x1",
      "cumulativeGasUsed": "0x662a",
      "logs": [],
      "logsBloom": "0x00000000000000000000000000000000000000000000000000000000000000000000000000000000000000000000000000000000000000000000000000000000000000000000000000000000000000000000000000000000000000000000000000000000000000000000000000000000000000000000000000000000000000000000000000000000000000000000000000000000000000000000000000000000000000000000000000000000000000000000000000000000000000000000000000000000000000000000000000000000000000000000000000000000000000000000000000000000000000000000000000000000000000000000000000000000",
      "type": "0x2",
      "transactionHash": "0xd236a1432c8717e1f67eb3f0742b734fafe8b8a047380e69f7be5cdb356ea6b5",
      "transactionIndex": "0x0",
      "blockHash": "0x0ffcd404babe194c97f2459f844e45d3ecddcd9beb366187a45312901b296698",
      "blockNumber": "0x22a3c87",
      "gasUsed": "0x662a",
      "effectiveGasPrice": "0x62b85e900",
      "from": "0x7E8d7BFd6cc6B05d056f2E46860D95038f2E3234",
      "to": "0xa44890719734c4BD9C5620455641D8Ba6e56A25E",
      "contractAddress": null
    }
  ],
  "libraries": [],
  "pending": [],
  "returns": {},
  "timestamp": 1729208540,
  "chain": 43113,
  "commit": "791858f"
}