{
  "transactions": [
    {
      "hash": "0x137136746f941deccf5c438bc8939f22b6d59f4a072397c6860230fa16e40ad9",
      "transactionType": "CALL",
      "contractName": null,
      "contractAddress": "0xf8015855637c109726614d1765306a1B682DfAFd",
      "function": "requestWeather(string)",
      "arguments": [
        "new-york"
      ],
      "transaction": {
        "from": "0x7E8d7BFd6cc6B05d056f2E46860D95038f2E3234",
        "to": "0xf8015855637c109726614d1765306a1B682DfAFd",
        "gas": "0x5eb2a",
        "value": "0x0",
        "input": "0x1829ca52000000000000000000000000000000000000000000000000000000000000002000000000000000000000000000000000000000000000000000000000000000086e65772d796f726b000000000000000000000000000000000000000000000000",
        "nonce": "0x286",
        "chainId": "0xa869"
      },
      "additionalContracts": [],
      "isFixedGasLimit": false
    }
  ],
  "receipts": [
    {
      "status": "0x1",
      "cumulativeGasUsed": "0x40c03",
      "logs": [
        {
          "address": "0x84c14D17E9D77140Efd998bE44a4CebF10729856",
          "topics": [
            "0xbf50768ccf13bd0110ca6d53a9c4f1f3271abdd4c24a56878863ed25b20598ff",
            "0x4c366529855a6a8cdc9f1ae89c07986f083ee49c0c44e0898986cf242d2c780d",
            "0x000000000000000000000000f8015855637c109726614d1765306a1b682dfafd"
          ],
          "data": "0x0000000000000000000000007e8d7bfd6cc6b05d056f2e46860d95038f2e3234000000000000000000000000000000000000000000000000000000000000352e0000000000000000000000007e8d7bfd6cc6b05d056f2e46860d95038f2e32340000000000000000000000000000000000000000000000000000000000000240000000000000000000000000000000000000000000000000000000000000000100000000000000000000000000000000000000000000000000000000000000000000000000000000000000000000000000000000000000000000000000030d404c366529855a6a8cdc9f1ae89c07986f083ee49c0c44e0898986cf242d2c780d00000000000000000000000084c14d17e9d77140efd998be44a4cebf10729856000000000000000000000000000000000000000000000000076d8d6f66434802000000000000000000000000f8015855637c109726614d1765306a1b682dfafd000000000000000000000000000000000000000000000000000000000000352e0000000000000000000000000000000000000000000000000000000000030d4000000000000000000000000000000000000000000000000004040a47414bb44e00000000000000000000000000000000000000000000000000000000000000000000000000000000000000000000000000000000000000000000000000020788000000000000000000000000000000000000000000000000000000000000dea8000000000000000000000000000000000000000000000000000000006711949400000000000000000000000000000000000000000000000000000000000001776c636f64654c6f636174696f6ec258200000000000000000000000000000000000000000000000000000000000000000686c616e6775616765c25820000000000000000000000000000000000000000000000000000000000000000066736f75726365790101636f6e73742063697479203d20617267735b305d3b636f6e737420617069526573706f6e7365203d2061776169742046756e6374696f6e732e6d616b654874747052657175657374287b75726c3a206068747470733a2f2f777474722e696e2f247b636974797d3f666f726d61743d33602c726573706f6e7365547970653a202774657874277d293b69662028617069526573706f6e73652e6572726f7229207b7468726f77204572726f72282752657175657374206661696c656427293b7d636f6e7374207b2064617461207d203d20617069526573706f6e73653b72657475726e2046756e6374696f6e732e656e636f6465537472696e672864617461293b64617267739f686e65772d796f726bff000000000000000000",
          "blockHash": "0xce26676cd8fbef0edfe6523f8e35a887e5bb18efb21981874d93564508fc9063",
          "blockNumber": "0x22a3a8d",
          "transactionHash": "0x137136746f941deccf5c438bc8939f22b6d59f4a072397c6860230fa16e40ad9",
          "transactionIndex": "0x0",
          "logIndex": "0x0",
          "removed": false
        },
        {
          "address": "0xA9d587a00A31A52Ed70D6026794a8FC5E2F5dCb0",
          "topics": [
            "0xf67aec45c9a7ede407974a3e0c3a743dffeab99ee3f2d4c9a8144c2ebf2c7ec9",
            "0x4c366529855a6a8cdc9f1ae89c07986f083ee49c0c44e0898986cf242d2c780d",
            "0x66756e2d6176616c616e6368652d66756a692d31000000000000000000000000",
            "0x000000000000000000000000000000000000000000000000000000000000352e"
          ],
          "data": "0x0000000000000000000000007e8d7bfd6cc6b05d056f2e46860d95038f2e3234000000000000000000000000f8015855637c109726614d1765306a1b682dfafd0000000000000000000000007e8d7bfd6cc6b05d056f2e46860d95038f2e323400000000000000000000000000000000000000000000000000000000000000e000000000000000000000000000000000000000000000000000000000000000010000000000000000000000000000000000000000000000000000000000030d40000000000000000000000000000000000000000000000000076d8d6f6643480200000000000000000000000000000000000000000000000000000000000001776c636f64654c6f636174696f6ec258200000000000000000000000000000000000000000000000000000000000000000686c616e6775616765c25820000000000000000000000000000000000000000000000000000000000000000066736f75726365790101636f6e73742063697479203d20617267735b305d3b636f6e737420617069526573706f6e7365203d2061776169742046756e6374696f6e732e6d616b654874747052657175657374287b75726c3a206068747470733a2f2f777474722e696e2f247b636974797d3f666f726d61743d33602c726573706f6e7365547970653a202774657874277d293b69662028617069526573706f6e73652e6572726f7229207b7468726f77204572726f72282752657175657374206661696c656427293b7d636f6e7374207b2064617461207d203d20617069526573706f6e73653b72657475726e2046756e6374696f6e732e656e636f6465537472696e672864617461293b64617267739f686e65772d796f726bff000000000000000000",
          "blockHash": "0xce26676cd8fbef0edfe6523f8e35a887e5bb18efb21981874d93564508fc9063",
          "blockNumber": "0x22a3a8d",
          "transactionHash": "0x137136746f941deccf5c438bc8939f22b6d59f4a072397c6860230fa16e40ad9",
          "transactionIndex": "0x0",
          "logIndex": "0x1",
          "removed": false
        },
        {
          "address": "0xf8015855637c109726614d1765306a1B682DfAFd",
          "topics": [
            "0x1131472297a800fee664d1d89cfa8f7676ff07189ecc53f80bbb5f4969099db8",
            "0x4c366529855a6a8cdc9f1ae89c07986f083ee49c0c44e0898986cf242d2c780d"
          ],
          "data": "0x",
          "blockHash": "0xce26676cd8fbef0edfe6523f8e35a887e5bb18efb21981874d93564508fc9063",
          "blockNumber": "0x22a3a8d",
          "transactionHash": "0x137136746f941deccf5c438bc8939f22b6d59f4a072397c6860230fa16e40ad9",
          "transactionIndex": "0x0",
          "logIndex": "0x2",
          "removed": false
        }
      ],
      "logsBloom": "0x00000000000100100000000100000000000000000004000000000000000000000000000000000000000000000000000000000000000000000000000000000010000000000000080000000000002000000800000004000000000000000000080000000000000000000000400000000000100000008000000000000000000000000000000000000900000000000080000000000200000000010001001000000000000000000001000000000000002000000000000000000000000000000000000040000000000000000080000800000000000000000000020000001000000000040000000000000000000000000000000000000000040000000000000000200000",
      "type": "0x2",
      "transactionHash": "0x137136746f941deccf5c438bc8939f22b6d59f4a072397c6860230fa16e40ad9",
      "transactionIndex": "0x0",
      "blockHash": "0xce26676cd8fbef0edfe6523f8e35a887e5bb18efb21981874d93564508fc9063",
      "blockNumber": "0x22a3a8d",
      "gasUsed": "0x40c03",
      "effectiveGasPrice": "0x5efeb1f00",
      "from": "0x7E8d7BFd6cc6B05d056f2E46860D95038f2E3234",
      "to": "0xf8015855637c109726614d1765306a1B682DfAFd",
      "contractAddress": null
    }
  ],
  "libraries": [],
  "pending": [],
  "returns": {},
  "timestamp": 1729205104,
  "chain": 43113,
  "commit": "791858f"
}