{
  "transactions": [
    {
      "hash": "0x6f40aff0f04a5b55d88846361e8d1bce54ad3955b8231e6e733a21a1ff9e285a",
      "transactionType": "CALL",
      "contractName": null,
      "contractAddress": "0xa44890719734c4BD9C5620455641D8Ba6e56A25E",
      "function": "setForwarder(address)",
      "arguments": [
        "0xD3a25a21509D50Afd5693Ba08609Ab97C03c7623"
      ],
      "transaction": {
        "from": "0x7E8d7BFd6cc6B05d056f2E46860D95038f2E3234",
        "to": "0xa44890719734c4BD9C5620455641D8Ba6e56A25E",
        "gas": "0xf87b",
        "value": "0x0",
        "input": "0xb9998a24000000000000000000000000d3a25a21509d50afd5693ba08609ab97c03c7623",
        "nonce": "0x2a0",
        "chainId": "0xa869"
      },
      "additionalContracts": [],
      "isFixedGasLimit": false
    }
  ],
  "receipts": [
    {
      "status": "0x1",
      "cumulativeGasUsed": "0xb3e6",
      "logs": [],
      "logsBloom": "0x00000000000000000000000000000000000000000000000000000000000000000000000000000000000000000000000000000000000000000000000000000000000000000000000000000000000000000000000000000000000000000000000000000000000000000000000000000000000000000000000000000000000000000000000000000000000000000000000000000000000000000000000000000000000000000000000000000000000000000000000000000000000000000000000000000000000000000000000000000000000000000000000000000000000000000000000000000000000000000000000000000000000000000000000000000000",
      "type": "0x2",
      "transactionHash": "0x6f40aff0f04a5b55d88846361e8d1bce54ad3955b8231e6e733a21a1ff9e285a",
      "transactionIndex": "0x0",
      "blockHash": "0x018d62f1713b1711173825bd0f29214ee189e42a83ec464283656e1d8f8cffc7",
      "blockNumber": "0x22a3bea",
      "gasUsed": "0xb3e6",
      "effectiveGasPrice": "0x62b85e900",
      "from": "0x7E8d7BFd6cc6B05d056f2E46860D95038f2E3234",
      "to": "0xa44890719734c4BD9C5620455641D8Ba6e56A25E",
      "contractAddress": null
    }
  ],
  "libraries": [],
  "pending": [],
  "returns": {},
  "timestamp": 1729207326,
  "chain": 43113,
  "commit": "791858f"
}