{
  "transactions": [
    {
      "hash": "0x44dfb09a7b03c3d85d9472e37a131f9e298065834a39796aae693dc8e9148eb6",
      "transactionType": "CALL",
      "contractName": null,
      "contractAddress": "0xe43f0cd0e3836af51f6071D045e326dc112c8f6b",
      "function": "requestWeather(string)",
      "arguments": [
        "new-york"
      ],
      "transaction": {
        "from": "0x7E8d7BFd6cc6B05d056f2E46860D95038f2E3234",
        "to": "0xe43f0cd0e3836af51f6071D045e326dc112c8f6b",
        "gas": "0x66934",
        "value": "0x0",
        "input": "0x1829ca52000000000000000000000000000000000000000000000000000000000000002000000000000000000000000000000000000000000000000000000000000000086e65772d796f726b000000000000000000000000000000000000000000000000",
        "nonce": "0x271",
        "chainId": "0xa869"
      },
      "additionalContracts": [],
      "isFixedGasLimit": false
    }
  ],
  "receipts": [
    {
      "status": "0x1",
      "cumulativeGasUsed": "0x46231",
      "logs": [
        {
          "address": "0x84c14D17E9D77140Efd998bE44a4CebF10729856",
          "topics": [
            "0xbf50768ccf13bd0110ca6d53a9c4f1f3271abdd4c24a56878863ed25b20598ff",
            "0x8fcb3a8117a6f0f6b08340c458c153a2b5e18e130334f4d4225740ae256c09cb",
            "0x000000000000000000000000e43f0cd0e3836af51f6071d045e326dc112c8f6b"
          ],
          "data": "0x0000000000000000000000007e8d7bfd6cc6b05d056f2e46860d95038f2e3234000000000000000000000000000000000000000000000000000000000000352e0000000000000000000000007e8d7bfd6cc6b05d056f2e46860d95038f2e32340000000000000000000000000000000000000000000000000000000000000240000000000000000000000000000000000000000000000000000000000000000100000000000000000000000000000000000000000000000000000000000000000000000000000000000000000000000000000000000000000000000000030d408fcb3a8117a6f0f6b08340c458c153a2b5e18e130334f4d4225740ae256c09cb00000000000000000000000084c14d17e9d77140efd998be44a4cebf1072985600000000000000000000000000000000000000000000000007fcf18279fdb410000000000000000000000000e43f0cd0e3836af51f6071d045e326dc112c8f6b000000000000000000000000000000000000000000000000000000000000352e0000000000000000000000000000000000000000000000000000000000030d4000000000000000000000000000000000000000000000000003f931c67a26552e00000000000000000000000000000000000000000000000000000000000000000000000000000000000000000000000000000000000000000000000000020788000000000000000000000000000000000000000000000000000000000000dea8000000000000000000000000000000000000000000000000000000006710ae4700000000000000000000000000000000000000000000000000000000000001776c636f64654c6f636174696f6ec258200000000000000000000000000000000000000000000000000000000000000000686c616e6775616765c25820000000000000000000000000000000000000000000000000000000000000000066736f75726365790101636f6e73742063697479203d20617267735b305d3b636f6e737420617069526573706f6e7365203d2061776169742046756e6374696f6e732e6d616b654874747052657175657374287b75726c3a206068747470733a2f2f777474722e696e2f247b636974797d3f666f726d61743d33602c726573706f6e7365547970653a202774657874277d293b69662028617069526573706f6e73652e6572726f7229207b7468726f77204572726f72282752657175657374206661696c656427293b7d636f6e7374207b2064617461207d203d20617069526573706f6e73653b72657475726e2046756e6374696f6e732e656e636f6465537472696e672864617461293b64617267739f686e65772d796f726bff000000000000000000",
          "blockHash": "0xceaf879bf8bf7e1632304f36a6bf33ce4b2547f6716428b754bf7855e3110380",
          "blockNumber": "0x22a1c1f",
          "transactionHash": "0x44dfb09a7b03c3d85d9472e37a131f9e298065834a39796aae693dc8e9148eb6",
          "transactionIndex": "0x0",
          "logIndex": "0x0",
          "removed": false
        },
        {
          "address": "0xA9d587a00A31A52Ed70D6026794a8FC5E2F5dCb0",
          "topics": [
            "0xf67aec45c9a7ede407974a3e0c3a743dffeab99ee3f2d4c9a8144c2ebf2c7ec9",
            "0x8fcb3a8117a6f0f6b08340c458c153a2b5e18e130334f4d4225740ae256c09cb",
            "0x66756e2d6176616c616e6368652d66756a692d31000000000000000000000000",
            "0x000000000000000000000000000000000000000000000000000000000000352e"
          ],
          "data": "0x0000000000000000000000007e8d7bfd6cc6b05d056f2e46860d95038f2e3234000000000000000000000000e43f0cd0e3836af51f6071d045e326dc112c8f6b0000000000000000000000007e8d7bfd6cc6b05d056f2e46860d95038f2e323400000000000000000000000000000000000000000000000000000000000000e000000000000000000000000000000000000000000000000000000000000000010000000000000000000000000000000000000000000000000000000000030d4000000000000000000000000000000000000000000000000007fcf18279fdb41000000000000000000000000000000000000000000000000000000000000001776c636f64654c6f636174696f6ec258200000000000000000000000000000000000000000000000000000000000000000686c616e6775616765c25820000000000000000000000000000000000000000000000000000000000000000066736f75726365790101636f6e73742063697479203d20617267735b305d3b636f6e737420617069526573706f6e7365203d2061776169742046756e6374696f6e732e6d616b654874747052657175657374287b75726c3a206068747470733a2f2f777474722e696e2f247b636974797d3f666f726d61743d33602c726573706f6e7365547970653a202774657874277d293b69662028617069526573706f6e73652e6572726f7229207b7468726f77204572726f72282752657175657374206661696c656427293b7d636f6e7374207b2064617461207d203d20617069526573706f6e73653b72657475726e2046756e6374696f6e732e656e636f6465537472696e672864617461293b64617267739f686e65772d796f726bff000000000000000000",
          "blockHash": "0xceaf879bf8bf7e1632304f36a6bf33ce4b2547f6716428b754bf7855e3110380",
          "blockNumber": "0x22a1c1f",
          "transactionHash": "0x44dfb09a7b03c3d85d9472e37a131f9e298065834a39796aae693dc8e9148eb6",
          "transactionIndex": "0x0",
          "logIndex": "0x1",
          "removed": false
        },
        {
          "address": "0xe43f0cd0e3836af51f6071D045e326dc112c8f6b",
          "topics": [
            "0x1131472297a800fee664d1d89cfa8f7676ff07189ecc53f80bbb5f4969099db8",
            "0x8fcb3a8117a6f0f6b08340c458c153a2b5e18e130334f4d4225740ae256c09cb"
          ],
          "data": "0x",
          "blockHash": "0xceaf879bf8bf7e1632304f36a6bf33ce4b2547f6716428b754bf7855e3110380",
          "blockNumber": "0x22a1c1f",
          "transactionHash": "0x44dfb09a7b03c3d85d9472e37a131f9e298065834a39796aae693dc8e9148eb6",
          "transactionIndex": "0x0",
          "logIndex": "0x2",
          "removed": false
        }
      ],
      "logsBloom": "0x00000000000100100000000100000000000008000004000000000000000000000080000000000000000000000000000000000000000001000000000000000018002000000000080000000000000000000800000000000000000000000000000000000000000000000000400000000000040000008000000000000010000000000000000000000800000000000000000000000200000040010000001000000000000000000001000000000000000000000000000000000000000000000000000040000000000000000080000800001000000000000000020000001000000000000000000000000000000000000000000000000000040000000000000000200000",
      "type": "0x2",
      "transactionHash": "0x44dfb09a7b03c3d85d9472e37a131f9e298065834a39796aae693dc8e9148eb6",
      "transactionIndex": "0x0",
      "blockHash": "0xceaf879bf8bf7e1632304f36a6bf33ce4b2547f6716428b754bf7855e3110380",
      "blockNumber": "0x22a1c1f",
      "gasUsed": "0x46231",
      "effectiveGasPrice": "0x6fc23ac01",
      "from": "0x7E8d7BFd6cc6B05d056f2E46860D95038f2E3234",
      "to": "0xe43f0cd0e3836af51f6071D045e326dc112c8f6b",
      "contractAddress": null
    }
  ],
  "libraries": [],
  "pending": [],
  "returns": {},
  "timestamp": 1729146145,
  "chain": 43113,
  "commit": "791858f"
}